{
  "contractName": "OnlineExam",
  "abi": [
    {
      "constant": true,
      "inputs": [],
      "name": "questioncount",
      "outputs": [
        {
          "name": "",
          "type": "uint256"
        }
      ],
      "payable": false,
      "stateMutability": "view",
      "type": "function"
    },
    {
      "constant": true,
      "inputs": [
        {
          "name": "",
          "type": "uint256"
        }
      ],
      "name": "questions",
      "outputs": [
        {
          "name": "qnum",
          "type": "uint256"
        },
        {
          "name": "question_name",
          "type": "string"
        }
      ],
      "payable": false,
      "stateMutability": "view",
      "type": "function"
    },
    {
      "inputs": [],
      "payable": false,
      "stateMutability": "nonpayable",
      "type": "constructor"
    }
  ],
  "bytecode": "0x608060405234801561001057600080fd5b5060006040805190810160405280600181526020017f320000000000000000000000000000000000000000000000000000000000000081525081600060048110151561005857fe5b01908051906020019061006c92919061082e565b506040805190810160405280600181526020017f33000000000000000000000000000000000000000000000000000000000000008152508160016004811015156100b257fe5b0190805190602001906100c692919061082e565b506040805190810160405280600181526020017f340000000000000000000000000000000000000000000000000000000000000081525081600260048110151561010c57fe5b01908051906020019061012092919061082e565b506040805190810160405280600181526020017f390000000000000000000000000000000000000000000000000000000000000081525081600360048110151561016657fe5b01908051906020019061017a92919061082e565b506102976040805190810160405280600481526020017f322a323f0000000000000000000000000000000000000000000000000000000081525082600480602002604051908101604052809291906000905b8282101561027f578382018054600181600116156101000203166002900480601f01602080910402602001604051908101604052809291908181526020018280546001816001161561010002031660029004801561026b5780601f106102405761010080835404028352916020019161026b565b820191906000526020600020905b81548152906001019060200180831161024e57829003601f168201915b5050505050815260200190600101906101cc565b505050506107a5640100000000026401000000009004565b6040805190810160405280600181526020017f32000000000000000000000000000000000000000000000000000000000000008152508160006004811015156102dc57fe5b0190805190602001906102f092919061082e565b506040805190810160405280600181526020017f360000000000000000000000000000000000000000000000000000000000000081525081600160048110151561033657fe5b01908051906020019061034a92919061082e565b506040805190810160405280600181526020017f340000000000000000000000000000000000000000000000000000000000000081525081600260048110151561039057fe5b0190805190602001906103a492919061082e565b506040805190810160405280600181526020017f39000000000000000000000000000000000000000000000000000000000000008152508160036004811015156103ea57fe5b0190805190602001906103fe92919061082e565b5061051b6040805190810160405280600481526020017f332a323f0000000000000000000000000000000000000000000000000000000081525082600480602002604051908101604052809291906000905b82821015610503578382018054600181600116156101000203166002900480601f0160208091040260200160405190810160405280929190818152602001828054600181600116156101000203166002900480156104ef5780601f106104c4576101008083540402835291602001916104ef565b820191906000526020600020905b8154815290600101906020018083116104d257829003601f168201915b505050505081526020019060010190610450565b505050506107a5640100000000026401000000009004565b6040805190810160405280600181526020017f320000000000000000000000000000000000000000000000000000000000000081525081600060048110151561056057fe5b01908051906020019061057492919061082e565b506040805190810160405280600281526020017f2d330000000000000000000000000000000000000000000000000000000000008152508160016004811015156105ba57fe5b0190805190602001906105ce92919061082e565b506040805190810160405280600181526020017f340000000000000000000000000000000000000000000000000000000000000081525081600260048110151561061457fe5b01908051906020019061062892919061082e565b506040805190810160405280600281526020017f2d3200000000000000000000000000000000000000000000000000000000000081525081600360048110151561066e57fe5b01908051906020019061068292919061082e565b5061079f6040805190810160405280600481526020017f332d353f0000000000000000000000000000000000000000000000000000000081525082600480602002604051908101604052809291906000905b82821015610787578382018054600181600116156101000203166002900480601f0160208091040260200160405190810160405280929190818152602001828054600181600116156101000203166002900480156107735780601f1061074857610100808354040283529160200191610773565b820191906000526020600020905b81548152906001019060200180831161075657829003601f168201915b5050505050815260200190600101906106d4565b505050506107a5640100000000026401000000009004565b50610a1a565b6000808154809291906001019190505550606060405190810160405280600054815260200183815260200182815250600160008054815260200190815260200160002060008201518160000155602082015181600101908051906020019061080e9291906108ae565b5060408201518160020190600461082692919061092e565b509050505050565b828054600181600116156101000203166002900490600052602060002090601f016020900481019282601f1061086f57805160ff191683800117855561089d565b8280016001018555821561089d579182015b8281111561089c578251825591602001919060010190610881565b5b5090506108aa9190610981565b5090565b828054600181600116156101000203166002900490600052602060002090601f016020900481019282601f106108ef57805160ff191683800117855561091d565b8280016001018555821561091d579182015b8281111561091c578251825591602001919060010190610901565b5b50905061092a9190610981565b5090565b8260048101928215610970579160200282015b8281111561096f57825182908051906020019061095f9291906108ae565b5091602001919060010190610941565b5b50905061097d91906109a6565b5090565b6109a391905b8082111561099f576000816000905550600101610987565b5090565b90565b6109cf91905b808211156109cb57600081816109c291906109d2565b506001016109ac565b5090565b90565b50805460018160011615610100020316600290046000825580601f106109f85750610a17565b601f016020900490600052602060002090810190610a169190610981565b5b50565b61021780610a296000396000f30060806040526004361061004c576000357c0100000000000000000000000000000000000000000000000000000000900463ffffffff1680630fb6276d1461005157806331b1b9781461007c575b600080fd5b34801561005d57600080fd5b50610066610129565b6040518082815260200191505060405180910390f35b34801561008857600080fd5b506100a76004803603810190808035906020019092919050505061012f565b6040518083815260200180602001828103825283818151815260200191508051906020019080838360005b838110156100ed5780820151818401526020810190506100d2565b50505050905090810190601f16801561011a5780820380516001836020036101000a031916815260200191505b50935050505060405180910390f35b60005481565b6001602052806000526040600020600091509050806000015490806001018054600181600116156101000203166002900480601f0160208091040260200160405190810160405280929190818152602001828054600181600116156101000203166002900480156101e15780601f106101b6576101008083540402835291602001916101e1565b820191906000526020600020905b8154815290600101906020018083116101c457829003601f168201915b50505050509050825600a165627a7a7230582004a7dbe6aec98b18732fa1112b0e7a35c7d203f730d443bde022024a7e7c811e0029",
  "source": "pragma solidity ^0.4.23;\r\n\r\ncontract OnlineExam {\r\n    struct question{\r\n        uint qnum;\r\n        string question_name;\r\n        string[4] options;\r\n    }\r\n    uint public questioncount;\r\n    mapping(uint => question) public questions;\r\n    function OnlineExam() public{\r\n        string[4] option;\r\n        option[0] = \"2\";\r\n        option[1] = \"3\";\r\n        option[2] = \"4\";\r\n        option[3] = \"9\";\r\n        addQuestion(\"2*2?\",option);\r\n        option[0] = \"2\";\r\n        option[1] = \"6\";\r\n        option[2] = \"4\";\r\n        option[3] = \"9\";\r\n        addQuestion(\"3*2?\",option);\r\n        option[0] = \"2\";\r\n        option[1] = \"-3\";\r\n        option[2] = \"4\";\r\n        option[3] = \"-2\";\r\n        addQuestion(\"3-5?\",option);\r\n    }\r\n    function addQuestion(string _question,string[4] _options) private{\r\n        questioncount ++;\r\n        questions[questioncount] = question(questioncount,_question,_options);\r\n    }\r\n\r\n}",
  "sourcePath": "C:\\Users\\vijay\\desktop\\student\\contracts\\OnlineExam.sol",
  "compiler": {
    "name": "solc",
    "version": "0.4.24+commit.e67f0147.Emscripten.clang"
  },
  "schemaVersion": "2.0.1",
  "updatedAt": "2018-10-14T10:09:37.160Z"
}